:100000000C943C000C94EA040C941A050C946400C3
:100010000C9464000C9464000C9464000C946400D0
:100020000C9464000C9464000C9464000C946400C0
:100030000C9464000C9464000C9464000C946400B0
:100040000C940E060C9464000C944A050C947605EE
:100050000C9464000C947B040C9464000C94640075
:100060000C9464000C9464006104D004D30563060E
:100070006E04DD04E005700611241FBECFEFD8E04A
:10008000DEBFCDBF11E0A0E0B1E0E0E2F8E202C0E7
:1000900005900D92AC3CB107D9F722E0ACECB1E091
:1000A00001C01D92AB3CB207E1F710E0C8E3D0E01D
:1000B00004C02197FE010E94D512C433D107C9F7AD
:1000C0000E94FC030C9403140C9400000F931F93E4
:1000D000CF93DF9300D0CDB7DEB79A8389836AE1EF
:1000E00071E08CEC91E00E94EB0600E814E82EE150
:1000F00030E040E050E060E070E083ED91E00E948D
:10010000CC076AE271E08CEC91E00E94EB06000003
:100110000F900F90DF91CF911F910F9108950F9342
:100120001F93CF93DF9300D0CDB7DEB79A83898337
:1001300068E371E08CEC91E00E94EB0600E814E8C3
:100140002EE130E040E050E060E070E083ED91E0CF
:100150000E94CC0768E471E08CEC91E00E94EB0611
:1001600000000F900F90DF91CF911F910F91089594
:100170000F931F93CF93DF9300D0CDB7DEB79A8351
:10018000898366E571E08CEC91E00E94EB0600E863
:1001900014E82EE130E040E050E060E070E083EDF4
:1001A00091E00E94CC0766E671E08CEC91E00E9441
:1001B000EB0600000F900F90DF91CF911F910F91F0
:1001C00008950F931F93CF93DF9300D0CDB7DEB781
:1001D0009A83898364E771E08CEC91E00E94EB06DE
:1001E00000E814E82EE130E040E050E060E070E02C
:1001F00083ED91E00E94CC0764E871E08CEC91E023
:100200000E94EB0600000F900F90DF91CF911F919D
:100210000F9108950F931F93CF93DF9300D0CDB725
:10022000DEB79A83898362E971E08CEC91E00E94E9
:10023000EB0600E814E82EE130E040E050E060E03A
:1002400070E083ED91E00E94CC0762EA71E08CECF3
:1002500091E00E94EB0600000F900F90DF91CF918C
:100260001F910F9108952F923F924F925F926F923C
:100270007F928F929F92AF92BF92CF92DF92EF9236
:10028000FF920F931F93CF93DF93CDB7DEB760EB51
:1002900071E08CEC91E00E94EB0664ED71E083ED7F
:1002A00091E00E94B20780EC8093DE0186EC80939F
:1002B000DF018DE28093E0011092E1011092E201F2
:1002C0001092E3011092E4011092E50186E690E0BD
:1002D0009093EF018093EE011092F1011092F001E2
:1002E00081E08093F2010E947B07A22EB32EC42EE0
:1002F000D52EE62EF72E082F192FA092E601B092E8
:10030000E701C092E801D092E901E092EA01F0929F
:10031000EB010093EC011093ED0180E88093F30171
:1003200086E98093F40188E98093F5011092F60143
:100330001092F7011092F8011092F9011092FA014F
:100340008FE890E0909304028093030210920602DB
:100350001092050282E0809307020E947B07A22E82
:10036000B32EC42ED52EE62EF72E082F192FA092CD
:10037000FB01B092FC01C092FD01D092FE01E0921F
:10038000FF01F0920002009301021093020280EC40
:10039000809308028FEC809309028AE680930A0218
:1003A00010920B0210920C0210920D0210920E028B
:1003B00010920F0288EB90E090931902809318023C
:1003C00010921B0210921A0281E080931C020E947C
:1003D0007B07A22EB32EC42ED52EE62EF72E082F85
:1003E000192FA0921002B0921102C0921202D09264
:1003F0001302E0921402F092150200931602109379
:10040000170210921D0282E180931E028AE78093F8
:100410001F021092200210922102109222021092CA
:1004200023021092240281EE90E090932E0280939A
:100430002D021092300210922F0281E0809331023F
:100440000E947B07A22EB32EC42ED52EE62EF72EA9
:10045000082F192FA0922502B0922602C0922702DF
:10046000D0922802E0922902F0922A0200932B02F5
:1004700010932C0280E4809332028BE48093330249
:100480008CE480933402109235021092360210925E
:10049000370210923802109239028AE091E090936C
:1004A000430280934202109245021092440281E07E
:1004B000809346020E947B07A22EB32EC42ED52E17
:1004C000E62EF72E082F192FA0923A02B0923B0287
:1004D000C0923C02D0923D02E0923E02F0923F0276
:1004E0000093400210934102A090E601B090E70112
:1004F000C090E801D090E901E090EA01F090EB01B2
:100500000091EC011091ED012090DE013090DF01AF
:100510004090E0015090E1016090E2017090E301B1
:100520008090E4019090E5012A2D3B2D4C2D5D2D0E
:100530006E2D7F2D802F912FA22CB32CC42CD52C67
:10054000E62CF72C082D192D0E94AE12622E732E68
:10055000842E952EA62EB72EC82ED92EE62CF72C3B
:10056000082D192D2A2D3B2D4C2D5D2D6EED71E0A2
:100570008DEC91E00E94F90CA090FB01B090FC0181
:10058000C090FD01D090FE01E090FF01F0900002CC
:1005900000910102109102022090F3013090F401C9
:1005A0004090F5015090F6016090F7017090F801CD
:1005B0008090F9019090FA012A2D3B2D4C2D5D2D54
:1005C0006E2D7F2D802F912FA22CB32CC42CD52CD7
:1005D000E62CF72C082D192D0E94AE12622E732ED8
:1005E000842E952EA62EB72EC82ED92EE62CF72CAB
:1005F000082D192D2A2D3B2D4C2D5D2D63EF71E01B
:100600008DEC91E00E94F90CA0901002B0901102C4
:10061000C0901202D0901302E0901402F0901502E4
:1006200000911602109117022090080230900902E2
:1006300040900A0250900B0260900C0270900D02E4
:1006400080900E0290900F022A2D3B2D4C2D5D2D97
:100650006E2D7F2D802F912FA22CB32CC42CD52C46
:10066000E62CF72C082D192D0E94AE12622E732E47
:10067000842E952EA62EB72EC82ED92EE62CF72C1A
:10068000082D192D2A2D3B2D4C2D5D2D68E072E093
:100690008DEC91E00E94F90CA0902502B09026020A
:1006A000C0902702D0902802E0902902F0902A0200
:1006B00000912B0210912C0220901D0230901E02FE
:1006C00040901F0250902002609021027090220200
:1006D00080902302909024022A2D3B2D4C2D5D2DDD
:1006E0006E2D7F2D802F912FA22CB32CC42CD52CB6
:1006F000E62CF72C082D192D0E94AE12622E732EB7
:10070000842E952EA62EB72EC82ED92EE62CF72C89
:10071000082D192D2A2D3B2D4C2D5D2D6DE172E0FC
:100720008DEC91E00E94F90CA0903A02B0903B024F
:10073000C0903C02D0903D02E0903E02F0903F021B
:100740000091400210914102209032023090330219
:10075000409034025090350260903602709037021B
:1007600080903802909039022A2D3B2D4C2D5D2D22
:100770006E2D7F2D802F912FA22CB32CC42CD52C25
:10078000E62CF72C082D192D0E94AE12622E732E26
:10079000842E952EA62EB72EC82ED92EE62CF72CF9
:1007A000082D192D2A2D3B2D4C2D5D2D62E372E075
:1007B0008DEC91E00E94F90C0000DF91CF911F9128
:1007C0000F91FF90EF90DF90CF90BF90AF909F90F0
:1007D0008F907F906F905F904F903F902F900895F3
:1007E000CF93DF93CDB7DEB78DEC91E00E94600828
:1007F0000000DF91CF910895CF93DF93CDB7DEB79F
:100800000E9433010E94F003FDCF0F931F93CF93FB
:10081000DF9300D000D0CDB7DEB79A8389837C8385
:100820006B8389819A81019791F58B819C810196D7
:1008300071F501E010E020E030E048E050E067E6CC
:1008400070E08CEC91E00E947D068DEC91E00E94BE
:100850001C0A83ED91E00E9453076DEC71E084ED7A
:1008600091E00E94A6088EED91E00E942D0A83EF90
:1008700091E00E942D0A88E092E00E942D0A8DE10D
:1008800092E00E942D0A82E392E00E942D0A898163
:100890009A81892B61F48B819C81019641F484EDCE
:1008A00091E00E94CF088DEC91E00E94451000007D
:1008B0000F900F900F900F90DF91CF911F910F919C
:1008C0000895CF93DF93CDB7DEB76FEF7FEF81E071
:1008D00090E00E940504DF91CF910895CF93DF93BC
:1008E000CDB7DEB76FEF7FEF80E090E00E940504A8
:1008F000DF91CF9108951F920F9200905F000F92A9
:1009000011242F933F934F935F936F937F938F9314
:100910009F93AF93BF93EF93FF93CF93DF93CDB7A5
:10092000DEB70E945610DF91CF91FF91EF91BF91FA
:10093000AF919F918F917F916F915F914F913F9177
:100940002F910F9000925F000F901F901895CF93FA
:10095000DF9300D000D0CDB7DEB79A8389837C8344
:100960006B8389819A81019741F48B819C810196E7
:1009700021F487E492E00E94A41089819A81892B56
:1009800041F48B819C81019621F487E492E00E94DE
:10099000CF100F900F900F900F90DF91CF9108958F
:1009A000CF93DF93CDB7DEB76FEF7FEF81E090E0BD
:1009B0000E94A704DF91CF910895CF93DF93CDB725
:1009C000DEB76FEF7FEF80E090E00E94A704DF9139
:1009D000CF9108951F920F9200905F000F92112403
:1009E0002F933F934F935F936F937F938F939F9337
:1009F000AF93BF93EF93FF93CF93DF93CDB7DEB762
:100A00008091690290916A02FC010995DF91CF9172
:100A1000FF91EF91BF91AF919F918F917F916F91D6
:100A20005F914F913F912F910F9000925F000F9037
:100A30001F9018951F920F9200905F000F92112443
:100A40002F933F934F935F936F937F938F939F93D6
:100A5000AF93BF93EF93FF93CF93DF93CDB7DEB701
:100A600080916B0290916C02FC010995DF91CF910E
:100A7000FF91EF91BF91AF919F918F917F916F9176
:100A80005F914F913F912F910F9000925F000F90D7
:100A90001F9018951F920F9200905F000F921124E3
:100AA0002F933F934F935F936F937F938F939F9376
:100AB000AF93BF93EF93FF93CF93DF93CDB7DEB7A1
:100AC0000E94DB10DF91CF91FF91EF91BF91AF9129
:100AD0009F918F917F916F915F914F913F912F9156
:100AE0000F9000925F000F901F9018951F920F9229
:100AF00000905F000F9211242F933F934F935F93C9
:100B00006F937F938F939F93AF93BF93EF93FF93D5
:100B1000CF93DF93CDB7DEB70E94EF10DF91CF9177
:100B2000FF91EF91BF91AF919F918F917F916F91C5
:100B30005F914F913F912F910F9000925F000F9026
:100B40001F901895CF93DF9300D000D0CDB7DEB7BC
:100B50009A8389837C836B8389819A81019761F46D
:100B60008B819C81019641F48DE692E00E94641194
:100B700083E992E00E94641189819A81892B61F452
:100B80008B819C81019641F483E992E00E948F1150
:100B90008DE692E00E948F110F900F900F900F90B2
:100BA000DF91CF910895CF93DF93CDB7DEB76FEF8D
:100BB0007FEF81E090E00E94A205DF91CF91089540
:100BC000CF93DF93CDB7DEB76FEF7FEF80E090E09C
:100BD0000E94A205DF91CF910895CF93DF9300D0BB
:100BE000CDB7DEB79A83898389819A810E94DB120F
:100BF0000F900F90DF91CF910895CF93DF9300D0A6
:100C0000CDB7DEB79A83898389819A810E94731355
:100C100000000F900F90DF91CF9108951F920F92D7
:100C200000905F000F9211242F933F934F935F9397
:100C30006F937F938F939F93AF93BF93EF93FF93A4
:100C4000CF93DF93CDB7DEB70E949B11DF91CF9199
:100C5000FF91EF91BF91AF919F918F917F916F9194
:100C60005F914F913F912F910F9000925F000F90F5
:100C70001F901895CF93DF9300D000D0CDB7DEB78B
:100C80009A8389837C836B8389819A81019741F45C
:100C90008B819C81019621F481EC92E00E94871265
:100CA00089819A81892B41F48B819C81019621F461
:100CB00081EC92E00E94A2120F900F900F900F9083
:100CC000DF91CF910895CF93DF93CDB7DEB76FEF6C
:100CD0007FEF81E090E00E943A06DF91CF91089586
:100CE000CF93DF93CDB7DEB76FEF7FEF80E090E07B
:100CF0000E943A06DF91CF9108950F931F93CF93EF
:100D0000DF93CDB7DEB72A970FB6F894DEBF0FBEDC
:100D1000CDBF9A8389837C836B835E834D833887C1
:100D20002F831A87098780910601909107012B81F3
:100D30003C81232F330F330B2F70FC0125838091CF
:100D40000601909107012B81FC012483809106010B
:100D50009091070128E1FC01218380910601909187
:100D6000070126E0FC01228300002A960FB6F894C2
:100D7000DEBF0FBECDBFDF91CF911F910F910895C0
:100D8000CF93DF9300D01F92CDB7DEB79A838983CC
:100D90006B83F8948B81682F83E992E00E94660A46
:100DA00021E0029609F420E0222309F07894809152
:100DB0000601909107012091060130910701F90188
:100DC00021812062FC01218300000F900F900F9081
:100DD000DF91CF910895CF93DF9300D000D0CDB7AE
:100DE000DEB79A8389837C836B838B819C81FC0132
:100DF0008081882379F08B819C819C012F5F3F4FFC
:100E00003C832B83FC01208189819A81622F0E947F
:100E1000C006EBCF00000F900F900F900F90DF9166
:100E2000CF910895CF93DF9300D0CDB7DEB79A83EB
:100E3000898325EC31E089819A81FC01318320830B
:100E400080E090E0892B21F089819A810E94FD0544
:100E50000F900F90DF91CF910895CF93DF9300D043
:100E6000CDB7DEB79A83898389819A810E94120760
:100E700089819A810E94FD050F900F90DF91CF919B
:100E80000895CF93DF9300D000D0CDB7DEB79A831B
:100E900089837C836B8300000F900F900F900F90DD
:100EA000DF91CF910895CF93DF9300D0CDB7DEB718
:100EB0009A8389838091080190910901FC01108235
:100EC000809108019091090124E0FC012183809127
:100ED00008019091090123E8FC01228380910A0115
:100EE00090910B0121E0FC01208300000F900F90F6
:100EF000DF91CF910895AF92BF92CF92DF92EF92A0
:100F0000FF920F931F93CF93DF93CDB7DEB720915E
:100F1000B9023091BA024091BB025091BC0260917B
:100F2000BD027091BE028091BF029091C002A22EBC
:100F3000B32EC42ED52EE62EF72E082F192F2A2DCC
:100F40003B2D4C2D5D2D6E2D7F2D802F912FDF9110
:100F5000CF911F910F91FF90EF90DF90CF90BF90B6
:100F6000AF900895CF93DF9300D000D0CDB7DEB718
:100F70009A8389837C836B838B819C8140E0BC0155
:100F800081EC92E00E94B50A00000F900F900F9044
:100F90000F90DF91CF9108952F923F924F925F92E1
:100FA0006F927F928F929F92AF92BF92CF92DF9279
:100FB000EF92FF920F931F93CF93DF93CDB7DEB7DE
:100FC00062970FB6F894DEBF0FBECDBF9A878987B0
:100FD0000B871C872D873E874F87588B698B7A8BB1
:100FE0000E947B07A22EB32EC42ED52EE62EF72EFE
:100FF000082F192F2A2D3B2D4C2D5D2D6E2D7F2D69
:10100000802F912FAB84BC84CD84DE84EF84F8885C
:1010100009891A890E94AE12A22EB32EC42ED52E93
:10102000E62EF72E082F192FA982BA82CB82DC82F6
:10103000ED82FE820F8318870E947B07A22EB32EBB
:10104000C42ED52EE62EF72E082F192FE1E0298089
:101050003A804B805C806D807E808F8098842A2DC2
:101060003B2D4C2D5D2D6E2D7F2D802F912FA22C91
:10107000B32CC42CD52CE62CF72C082D192D0E944E
:10108000C01208F0E0E0EE2309F0D6CF000062962F
:101090000FB6F894DEBF0FBECDBFDF91CF911F9189
:1010A0000F91FF90EF90DF90CF90BF90AF909F9007
:1010B0008F907F906F905F904F903F902F9008950A
:1010C000CF93DF9300D000D0CDB7DEB79C838B8366
:1010D000F8948B819C810E94EF0A21E01816190672
:1010E0000CF020E02223A9F08B819C810E94000B50
:1010F0009A838983789489819A81FC012089318936
:1011000089819A81FC0182899389F9010995F89472
:10111000E0CF789400000F900F900F900F90DF9128
:10112000CF910895CF93DF9300D0CDB7DEB79A83E8
:10113000898325EC31E089819A81FC013183208308
:1011400000000F900F90DF91CF910895CF93DF9320
:1011500000D000D0CDB7DEB79A8389837C836B83C0
:1011600089819A810E9492082BEB31E089819A81D2
:10117000FC013183208389819A812B813C81FC0190
:101180003383228389819A8104960E94600B000038
:101190000F900F900F900F90DF91CF910895CF9304
:1011A000DF9300D0CDB7DEB79A8389832BEB31E094
:1011B00089819A81FC013183208389819A810496F7
:1011C0000E947C0B89819A810E94120780E090E046
:1011D000892B21F089819A810E94FD050F900F9043
:1011E000DF91CF910895CF93DF9300D0CDB7DEB7D5
:1011F0009A83898389819A810E94CF0889819A8103
:101200000E94FD050F900F90DF91CF9108952F92CE
:101210003F924F925F926F927F928F929F92AF9286
:10122000BF92CF92DF92EF92FF920F931F93CF93D3
:10123000DF93CDB7DEB72E970FB6F894DEBF0FBEA3
:10124000CDBF9C878B877E876D878B859C85049619
:101250000E94890B21E0892B09F020E0222309F06C
:10126000D1C08D859E852C01892F880F880B682E13
:10127000782E882E982EA82EB82E8B859C850496C5
:10128000042D152D262D372D482D592D6A2D7B2DFA
:101290000E949A0BA22EB32EC42ED52EE62EF72E28
:1012A000082F192FA982BA82CB82DC82ED82FE82BE
:1012B0000F831887A980BA80CB80DC80ED80FE8008
:1012C0000F8118852A2D3B2D4C2D5D2D6E2D7F2DE8
:1012D000802F912FA0E00E94C91209F094C08B8545
:1012E0009C8504960E94990C9A8789870E947B07A7
:1012F000A22EB32EC42ED52EE62EF72E082F192F90
:1013000089859A85FC01A086FC01B186FC01C28614
:10131000FC01D386FC01E486FC01F586FC0106870E
:10132000FC01178789859A85FC01A084FC01B184A2
:10133000FC01C284FC01D384FC01E484FC01F5843B
:10134000FC010685FC01178589859A85FC012080B2
:10135000FC013180FC014280FC015380FC0164806F
:10136000FC017580FC018680FC0197802A2D3B2DB5
:101370004C2D5D2D6E2D7F2D802F912FA22CB32C07
:10138000C42CD52CE62CF72C082D192D0E94AE125A
:10139000622E732E842E952EA62EB72EC82ED92EF1
:1013A0008B859C85FC0182819381FC0189859A85CE
:1013B000E62CF72C082D192D2A2D3B2D4C2D5D2DBB
:1013C000BC01CF010E94F90C8B859C85049600E03E
:1013D00010E020E030E040E050E060E070E00E948B
:1013E0009A0BA22EB32EC42ED52EE62EF72E082F42
:1013F000192FA982BA82CB82DC82ED82FE820F8312
:10140000188701C000002E960FB6F894DEBF0FBEFD
:10141000CDBFDF91CF911F910F91FF90EF90DF90A3
:10142000CF90BF90AF909F908F907F906F905F9084
:101430004F903F902F900895CF93DF9300D0CDB77A
:10144000DEB79A83898389819A810E94770D000093
:101450000F900F90DF91CF910895AF92BF92CF92EE
:10146000DF92EF92FF920F931F93CF93DF9300D001
:10147000CDB7DEB79A8389830E947B07A22EB32E55
:10148000C42ED52EE62EF72E082F192F89819A818A
:10149000FC01A086FC01B186FC01C286FC01D3865A
:1014A000FC01E486FC01F586FC010687FC01178738
:1014B00000000F900F90DF91CF911F910F91FF903F
:1014C000EF90DF90CF90BF90AF9008950F931F9350
:1014D000CF93DF9300D01F92CDB7DEB79A83898375
:1014E0006B8389819A810E94A00D8C0189819A81E8
:1014F0000E94B10D21E00817190708F420E022230B
:1015000019F08EEF9FEF29C089819A81FC0182A199
:1015100093A129813A81820F931F2B81FC012083A3
:1015200089819A81FC0182A193A101969C012F716E
:10153000332789819A81FC0133A322A389819A816F
:10154000FC0184A195A19C012F5F3F4F89819A8165
:10155000FC0135A324A380E090E00F900F900F9042
:10156000DF91CF911F910F910895CF93DF9300D01A
:1015700000D01F92CDB7DEB79A8389837C836B83BB
:101580004D8389819A81FC0184819581892B49F45D
:101590002B813C8189819A814D81B9010E94BF0DC7
:1015A00008C02B813C8189819A814D81B9010E94BB
:1015B000090E89819A81FC01848195819C012F5FAC
:1015C0003F4F89819A81FC013583248300000F906D
:1015D0000F900F900F900F90DF91CF910895CF93C0
:1015E000DF9300D0CDB7DEB79A83898389819A8152
:1015F000FC01848195810F900F90DF91CF91089528
:10160000CF93DF9300D000D000D0CDB7DEB79E835C
:101610008D838D819E81FC0180819181FC0184817B
:1016200095819A8389838D819E81FC01808191813E
:101630009C838B838D819E81FC0180819181FC0143
:1016400080819181892B99F08D819E81FC0180811F
:101650009181FC01808191812D813E81F901208160
:101660003181F90122813381FC01338322838D8111
:101670009E81FC0180819181FC01208131818D81DD
:101680009E81FC01318320838B819C810E94FD051A
:101690008D819E81FC01848195819C0121503109BD
:1016A0008D819E81FC013583248389819A812696D0
:1016B0000FB6F894DEBF0FBECDBFDF91CF91089576
:1016C000CF93DF9300D0CDB7DEB79A83898389812A
:1016D0009A81FC011182108289819A81FC01138216
:1016E000128289819A81FC011582148200000F9078
:1016F0000F90DF91CF910895CF93DF9300D0CDB7B6
:10170000DEB79A83898300000F900F90DF91CF910D
:101710000895CF93DF9300D0CDB7DEB79A83898346
:1017200089819A81FC01848195810F900F90DF91CE
:10173000CF9108952F923F924F925F926F927F9236
:101740008F929F92AF92BF92CF92DF92EF92FF92D1
:101750000F931F93CF93DF93CDB7DEB72A970FB6C2
:10176000F894DEBF0FBECDBF9A8389830B831C83A1
:101770002D833E834F83588769877A8789819A8131
:10178000DC0114968D919C911597892B49F42FEFCC
:101790003FEF4FEF5FEF6FEF7FEF8FEF9FEFA0C057
:1017A00089819A81FC0180819181DC011696AC903F
:1017B000FC01B780DC011896CC90FC01D184DC01DF
:1017C0001A96EC90FC01F384DC011C960C91FC0150
:1017D00015852B803C804D805E806F807884898465
:1017E0009A842A2D3B2D4C2D5D2D6E2D7F2D802F23
:1017F000912FA22CB32CC42CD52CE62CF72C082D21
:10180000192D0E94C01209F0D0F489819A81DC015F
:101810008D919C91FC011682DC0117961C92FC01B3
:101820001086DC0119961C92FC011286DC011B96C5
:101830001C92FC011486DC011D961C9244C0898117
:101840009A81DC01ED91FC9189819A81DC018D9175
:101850009C91DC011696AC90DC011796BC90DC01E3
:101860001896CC90DC011996DC90DC011A96EC906D
:10187000DC011B96FC90DC011C960C91DC011D9692
:101880001C912A2D3B2D4C2D5D2D6E2D7F2D802FF3
:10189000912FAB80BC80CD80DE80EF80F8840985FD
:1018A0001A850E94B712A22EB32EC42ED52EE62E74
:1018B000F72E082F192FA682B782C086D186E2861E
:1018C000F3860487158789819A81DC01ED91FC916B
:1018D000268137814085518562857385848595850C
:1018E000A22EB32EC42ED52EE62EF72E082F192F9A
:1018F0002A2D3B2D4C2D5D2D6E2D7F2D802F912F70
:101900002A960FB6F894DEBF0FBECDBFDF91CF9100
:101910001F910F91FF90EF90DF90CF90BF90AF900D
:101920009F908F907F906F905F904F903F902F90FF
:101930000895CF93DF9300D000D000D0CDB7DEB7AD
:101940009E838D838D819E81FC0180819181FC012C
:10195000848195819A8389838D819E81FC01808118
:1019600091819C838B838D819E81FC0180819181FB
:10197000FC0180819181892B99F08D819E81FC01F0
:1019800080819181FC01808191812D813E81F901CD
:1019900020813181F90122813381FC01338322834B
:1019A0008D819E81FC0180819181FC0120813181AA
:1019B0008D819E81FC01318320838B819C810E94DB
:1019C000FD058D819E81FC01848195819C012150C2
:1019D00031098D819E81FC013583248389819A811F
:1019E00026960FB6F894DEBF0FBECDBFDF91CF9124
:1019F00008954F925F926F927F928F929F92AF92D3
:101A0000BF92CF92DF92EF92FF920F931F93CF93EB
:101A1000DF93CDB7DEB72C970FB6F894DEBF0FBEBD
:101A2000CDBF9A8389837C836B83ED82FE820F8393
:101A3000188729873A874B875C8789819A81FC01BF
:101A400084819581892BB9F46D807E808F80988404
:101A5000A984BA84CB84DC846B817C8189819A815E
:101A6000E62CF72C082D192D2A2D3B2D4C2D5D2D04
:101A70000E945B0E17C04D805E806F8078848984E1
:101A80009A84AB84BC846B817C8189819A81C12CCE
:101A9000E42CF52C062D172D282D392D4A2D5B2DE4
:101AA0000E94C90E89819A81FC01848195819C01E3
:101AB0002F5F3F4F89819A81FC0135832483000089
:101AC0002C960FB6F894DEBF0FBECDBFDF91CF913D
:101AD0001F910F91FF90EF90DF90CF90BF90AF904C
:101AE0009F908F907F906F905F904F900895CF93CD
:101AF000DF9300D0CDB7DEB79A83898389819A813D
:101B0000FC011182108289819A81FC011382128268
:101B100089819A81FC011582148200000F900F9038
:101B2000DF91CF910895CF93DF9300D0CDB7DEB78B
:101B30009A83898300000F900F90DF91CF910895D1
:101B4000CF93DF9300D0CDB7DEB79A8389838981A5
:101B50009A81FC0184A195A10F900F90DF91CF9104
:101B60000895CF93DF9300D0CDB7DEB79A838983F2
:101B700080E290E00F900F90DF91CF910895CF9386
:101B8000DF93CDB7DEB727970FB6F894DEBF0FBE51
:101B9000CDBF9C838B837E836D834F8387E090E0F2
:101BA0000E94ED0547E09C01F901542F11925A95CE
:101BB000E9F79A83898389819A812D813E81FC018D
:101BC0003583248389819A812F81FC012683898131
:101BD0009A81FC011382128289819A81FC0111820F
:101BE00010828B819C8129813A81FC013183208381
:101BF0008B819C8129813A81FC01338322830000FF
:101C000027960FB6F894DEBF0FBECDBFDF91CF9100
:101C10000895CF93DF93CDB7DEB727970FB6F8942B
:101C2000DEBF0FBECDBF9C838B837E836D834F83CE
:101C300087E090E00E94ED0547E09C01F901542FF8
:101C400011925A95E9F79A83898389819A812D8126
:101C50003E81FC013583248389819A812F81FC0197
:101C600026838B819C81FC012281338189819A8129
:101C7000FC013383228389819A81FC0111821082C5
:101C80008B819C81FC018281938129813A81FC01B5
:101C9000318320838B819C8129813A81FC013383AC
:101CA0002283000027960FB6F894DEBF0FBECDBF8B
:101CB000DF91CF910895EF92FF920F931F93CF93EF
:101CC000DF93CDB7DEB72E970FB6F894DEBF0FBE09
:101CD000CDBF9C838B837E836D83EF82F8860987DB
:101CE0001A872B873C874D875E878EE090E00E94A5
:101CF000ED054EE09C01F901542F11925A95E9F738
:101D00009A83898389819A812D813E81FC01358363
:101D1000248389819A812F81FC0126832885FC01F7
:101D200027832985FC0120872A85FC0121872B85B3
:101D3000FC0122872C85FC0123872D85FC0124874B
:101D40002E85FC01258789819A81FC0113821282EC
:101D500089819A81FC01118210828B819C81298169
:101D60003A81FC01318320838B819C8129813A81D6
:101D7000FC013383228300002E960FB6F894DEBF59
:101D80000FBECDBFDF91CF911F910F91FF90EF90CC
:101D900008952F923F924F925F926F927F928F920F
:101DA0009F92AF92BF92CF92DF92EF92FF920F93EA
:101DB0001F93CF93DF93CDB7DEB761970FB6F8943B
:101DC000DEBF0FBECDBF9E838D8378876F83E9868C
:101DD000FA860B871C872D873E874F87588BC98AC9
:101DE0008D819E81FC01808191819A838983898183
:101DF0009A81892BA9F189819A81FC01A680FC0135
:101E0000B780FC01C084FC01D184FC01E284FC01A8
:101E1000F384FC010485FC01158529843A844B84F4
:101E20005C846D847E848F8498882A2D3B2D4C2D74
:101E30005D2D6E2D7F2D802F912FA22CB32CC42CC5
:101E4000D52CE62CF72C082D192D0E94C01240F439
:101E500089819A81FC01808191819A838983C7CF8E
:101E600089819A81892BB9F469847A848B849C84D2
:101E7000AD84BE84CF84D8886F8178858D819E8122
:101E8000E62CF72C082D192D2A2D3B2D4C2D5D2DE0
:101E90000E94CF0F6BC08EE090E00E94ED054EE0F7
:101EA0009C01F901542F11925A95E9F79C838B8379
:101EB0008B819C812F813885FC01358324838B8124
:101EC0009C812985FC0126832A85FC0127832B859B
:101ED000FC0120872C85FC0121872D85FC012287B0
:101EE0002E85FC0123872F85FC0124872889FC018E
:101EF00025878B819C8129813A81FC013183208354
:101F000089819A81FC01228133818B819C81FC0132
:101F1000338322838B819C81FC0182819381892B75
:101F200051F08B819C81FC01828193812B813C81CA
:101F3000FC01318320838B819C81FC018081918114
:101F40002B813C81FC01338322838D819E81FC01A6
:101F50002081318189819A812817390739F48D814F
:101F60009E812B813C81FC013183208361960FB6D9
:101F7000F894DEBF0FBECDBFDF91CF911F910F91BF
:101F8000FF90EF90DF90CF90BF90AF909F908F9099
:101F90007F906F905F904F903F902F900895EF92B9
:101FA000FF920F931F93CF93DF93CDB7DEB72E979A
:101FB0000FB6F894DEBF0FBECDBF9C838B837E83AC
:101FC0006D83EF82F88609871A872B873C874D87B8
:101FD0005E878EE090E00E94ED054EE09C01F901E5
:101FE000542F11925A95E9F79A83898389819A81AE
:101FF0002D813E81FC013583248389819A812F8143
:10200000FC0126832885FC0127832985FC01208784
:102010002A85FC0121872B85FC0122872C85FC0168
:1020200023872D85FC0124872E85FC0125878B8144
:102030009C81FC012281338189819A81FC01338357
:10204000228389819A81FC01118210828B819C817B
:10205000FC018281938129813A81FC0131832083B3
:102060008B819C8129813A81FC013383228300008A
:102070002E960FB6F894DEBF0FBECDBFDF91CF9185
:102080001F910F91FF90EF900895CF93DF9300D0B1
:10209000CDB7DEB79A83898389819A810E94930D97
:1020A00000000F900F90DF91CF910895CF93DF93B1
:1020B000CDB7DEB78091000190910101FC018081D4
:1020C0009181BC0187E492E00E946910DF91CF9179
:1020D0000895CF93DF9300D000D0CDB7DEB79A83B9
:1020E00089837C836B8389819A81FC0180A191A182
:1020F0009C012F5F3F4F89819A81FC0131A320A36E
:1021000089819A81FC0180A191A19C012F703327C4
:1021100089819A81FC0131A320A389819A81FC01E4
:1021200080A191A129813A81880F991F820F931F65
:102130002B813C81FC01318320830F900F900F9005
:102140000F90DF91CF910895CF93DF9300D0CDB75B
:10215000DEB79A83898389819A810E94B4100F9097
:102160000F90DF91CF910895CF93DF9300D0CDB73B
:10217000DEB79A83898389819A8140E150E060E0EB
:1021800070E00E94FC1389819A812FEF3FEFFC01E0
:1021900031A320A30F900F90DF91CF910895CF939B
:1021A000DF9300D0CDB7DEB79A8389830F900F906D
:1021B000DF91CF910895CF93DF93CDB7DEB7F89439
:1021C0008091060190910701FC018681682F8DE6C0
:1021D00092E00E94660A7894DF91CF910895CF93A0
:1021E000DF931F92CDB7DEB7CE010196BC0183E924
:1021F00092E00E941A1121E0019609F420E02223C6
:1022000041F080910601909107012981FC0126830C
:102210000DC0809106019091070120910601309137
:102220000701F90121812F7DFC0121830F90DF91AE
:10223000CF910895CF93DF9300D000D0CDB7DEB714
:102240009A8389837C836B8389819A810E94A00D04
:1022500021E0892B09F020E0222319F08FEF9FEF76
:102260002CC089819A81FC0180A191A129813A81A8
:10227000820F931FFC0120818B819C81FC012083B4
:1022800089819A81FC0180A191A101969C012F7105
:10229000332789819A81FC0131A320A389819A8106
:1022A000FC0184A195A19C012150310989819A8169
:1022B000FC0135A324A380E090E00F900F900F90D5
:1022C0000F90DF91CF910895CF93DF9300D0CDB7DA
:1022D000DEB79A83898389819A810E9474110F9055
:1022E0000F90DF91CF910895CF93DF9300D0CDB7BA
:1022F000DEB79A83898389819A81FC0115A214A291
:1023000089819A81FC0111A210A289819A81FC0124
:1023100013A212A20F900F90DF91CF910895CF9347
:10232000DF9300D0CDB7DEB79A8389830F900F90EB
:10233000DF91CF9108952F923F924F925F926F92CB
:102340007F928F929F92AF92BF92CF92DF92EF9245
:10235000FF920F931F93CF93DF9300D000D0CDB7A0
:10236000DEB7809108019091090123E8FC012283E6
:10237000A090B902B090BA02C090BB02D090BC024B
:10238000E090BD02F090BE020091BF021091C00229
:1023900080ED97E01C01412C512C612C712C4301E4
:1023A0002A2D3B2D4C2D5D2D6E2D7F2D802F912FB5
:1023B000A22CB32CC42CD52CE62CF72C082D192DCF
:1023C0000E94AE12A22EB32EC42ED52EE62EF72ECC
:1023D000082F192FA092B902B092BA02C092BB0284
:1023E000D092BC02E092BD02F092BE020093BF0206
:1023F0001093C0021C821B821A8219821DC089811F
:102400009A81BC0181EC92E00E9452129C838B83E2
:102410008B819C81FC01808191810496FC0120814B
:1024200031818B819C8160ED77E0F901099589818B
:102430009A8101969A83898381EC92E00E944112ED
:102440009C0141E089819A81821793070CF040E05A
:102450004423A9F60F900F900F900F90DF91CF912A
:102460001F910F91FF90EF90DF90CF90BF90AF90B2
:102470009F908F907F906F905F904F903F902F90A4
:102480000895CF93DF9300D0CDB7DEB79A838983C9
:1024900089819A81FC01848195810F900F90DF9151
:1024A000CF910895CF93DF9300D000D000D0CDB767
:1024B000DEB79C838B837E836D838B819C81FC0143
:1024C000808191819A83898307C089819A81FC01E7
:1024D000808191819A8389838D819E819C01215085
:1024E00031093E832D8321E0892B09F420E022234A
:1024F00061F789819A81FC018481958126960FB6C6
:10250000F894DEBF0FBECDBFDF91CF910895CF937A
:10251000DF9300D0CDB7DEB79A83898389819A8112
:10252000FC011182108289819A81FC01138212823E
:1025300089819A81FC01158214820F900F90DF919E
:10254000CF910895CF93DF9300D0CDB7DEB79A83B4
:1025500089830F900F90DF91CF9108952A0D3B1D35
:102560004C1D5D1D6E1D7F1D801F911F08952A1932
:102570003B094C095D096E097F09800B910B089599
:102580002A153B054C055D056E057F058007910703
:1025900008950024A7FD00942A1730054005500532
:1025A00060057005800590050895EE0FFF1F0590EA
:1025B000F491E02D09940F931F93CF93DF93823012
:1025C000910510F482E090E0E091C902F091CA0216
:1025D00020E030E0A0E0B0E0309719F14081518177
:1025E0000281138148175907C8F08417950769F4C9
:1025F000109731F012960C93129713961C9327C0E4
:102600000093C9021093CA0222C02115310519F0A6
:102610004217530718F49A01BD01EF01DF01F801D9
:10262000DBCF21153105F9F0281B390B243031059A
:1026300080F48A819B816115710521F0FB019383F0
:10264000828304C09093CA028093C902FE0132962D
:1026500044C0FE01E20FF31F819391932250310990
:10266000398328833AC02091C7023091C802232BB6
:1026700041F420910E0130910F013093C802209354
:10268000C70220910C0130910D012115310541F453
:102690002DB73EB74091100150911101241B350B0D
:1026A000E091C702F091C802E217F307A0F42E1BD5
:1026B0003F0B2817390778F0AC014E5F5F4F2417A6
:1026C000350748F04E0F5F1F5093C8024093C70272
:1026D0008193919302C0E0E0F0E0CF01DF91CF91D0
:1026E0001F910F910895CF93DF93009709F481C054
:1026F000FC01329713821282A091C902B091CA02E2
:10270000109781F420813181820F931F2091C7029D
:102710003091C8022817390751F5F093C802E093A9
:10272000C70267C0ED0120E030E0CE17DF0740F4BC
:102730004A815B819E0141155105F1F0EA01F5CF17
:10274000D383C28340815181840F951FC817D90755
:1027500059F488819981840F951F02969183808313
:102760008A819B81938382832115310529F4F0931B
:10277000CA02E093C9023DC0E901FB83EA834991A3
:102780005991C40FD51FEC17FD0761F48081918129
:10279000840F951F0296E901998388838281938132
:1027A0009B838A83E0E0F0E012968D919C911397D1
:1027B000009719F0FD01DC01F7CF8D919C911197E5
:1027C0009D012E5F3F4F820F931F2091C7023091D2
:1027D000C8022817390769F4309729F41092CA0201
:1027E0001092C90202C013821282B093C802A09351
:1027F000C702DF91CF910895DC0101C06D93415074
:102800005040E0F7089510E0C8E3D0E004C0FE01B6
:102810000E94D5122196CC33D107C9F7F894FFCF87
:10282000780069003D00C00044006E000000CB024B
:10283000200080841E00000000005461736B203073
:10284000202D2073746172740A005461736B203000
:10285000202D20656E640A005461736B2031202D99
:102860002073746172740A005461736B2031202DDF
:1028700020656E640A005461736B2032202D207332
:10288000746172740A005461736B2032202D2065CC
:102890006E640A005461736B2033202D20737461C1
:1028A00072740A005461736B2033202D20656E64AE
:1028B0000A005461736B2034202D2073746172748C
:1028C0000A005461736B2034202D20656E640A0069
:1028D00073657475700A0000000000CF08F30807E4
:0C28E000090000000012072D074107004E
:00000001FF
